{
  "contractName": "BlockXHealth",
  "abi": [
    {
      "inputs": [],
      "payable": false,
      "stateMutability": "nonpayable",
      "type": "constructor"
    },
    {
      "constant": true,
      "inputs": [],
      "name": "getOwner",
      "outputs": [
        {
          "name": "",
          "type": "address"
        }
      ],
      "payable": false,
      "stateMutability": "view",
      "type": "function"
    },
    {
      "constant": true,
      "inputs": [],
      "name": "getTotalHospitals",
      "outputs": [
        {
          "name": "",
          "type": "uint256"
        }
      ],
      "payable": false,
      "stateMutability": "view",
      "type": "function"
    },
    {
      "constant": true,
      "inputs": [],
      "name": "getTotalHospitalVisits",
      "outputs": [
        {
          "name": "",
          "type": "uint256"
        }
      ],
      "payable": false,
      "stateMutability": "view",
      "type": "function"
    },
    {
      "constant": true,
      "inputs": [
        {
          "name": "_hospitalAddress",
          "type": "address"
        }
      ],
      "name": "getVisitsForHospital",
      "outputs": [
        {
          "name": "",
          "type": "uint256"
        }
      ],
      "payable": false,
      "stateMutability": "view",
      "type": "function"
    },
    {
      "constant": true,
      "inputs": [
        {
          "name": "_hospitalAddress",
          "type": "address"
        },
        {
          "name": "_patientAddress",
          "type": "address"
        }
      ],
      "name": "getPatientVisitCount",
      "outputs": [
        {
          "name": "",
          "type": "uint256"
        }
      ],
      "payable": false,
      "stateMutability": "view",
      "type": "function"
    },
    {
      "constant": false,
      "inputs": [
        {
          "name": "_hospitalAddress",
          "type": "address"
        },
        {
          "name": "_hospitalName",
          "type": "string"
        }
      ],
      "name": "addHospital",
      "outputs": [
        {
          "name": "",
          "type": "bool"
        }
      ],
      "payable": false,
      "stateMutability": "nonpayable",
      "type": "function"
    },
    {
      "constant": false,
      "inputs": [
        {
          "name": "_hospitalAddress",
          "type": "address"
        },
        {
          "name": "_timeOfVisit",
          "type": "uint256"
        }
      ],
      "name": "addPatientVisit",
      "outputs": [
        {
          "name": "",
          "type": "bool"
        }
      ],
      "payable": false,
      "stateMutability": "nonpayable",
      "type": "function"
    }
  ],
  "bytecode": "0x608060405234801561001057600080fd5b50336000806101000a81548173ffffffffffffffffffffffffffffffffffffffff021916908373ffffffffffffffffffffffffffffffffffffffff1602179055506107f0806100606000396000f300608060405260043610610083576000357c0100000000000000000000000000000000000000000000000000000000900463ffffffff16806303f2ca1b14610088578063457bcea9146100df5780634685fbb814610180578063893d20e8146101e5578063a0b14b971461023c578063a1712e4914610267578063eb690f56146102de575b600080fd5b34801561009457600080fd5b506100c9600480360381019080803573ffffffffffffffffffffffffffffffffffffffff169060200190929190505050610309565b6040518082815260200191505060405180910390f35b3480156100eb57600080fd5b50610166600480360381019080803573ffffffffffffffffffffffffffffffffffffffff169060200190929190803590602001908201803590602001908080601f0160208091040260200160405190810160405280939291908181526020018383808284378201915050505050509192919290505050610352565b604051808215151515815260200191505060405180910390f35b34801561018c57600080fd5b506101cb600480360381019080803573ffffffffffffffffffffffffffffffffffffffff16906020019092919080359060200190929190505050610422565b604051808215151515815260200191505060405180910390f35b3480156101f157600080fd5b506101fa610658565b604051808273ffffffffffffffffffffffffffffffffffffffff1673ffffffffffffffffffffffffffffffffffffffff16815260200191505060405180910390f35b34801561024857600080fd5b50610251610681565b6040518082815260200191505060405180910390f35b34801561027357600080fd5b506102c8600480360381019080803573ffffffffffffffffffffffffffffffffffffffff169060200190929190803573ffffffffffffffffffffffffffffffffffffffff16906020019092919050505061068b565b6040518082815260200191505060405180910390f35b3480156102ea57600080fd5b506102f3610715565b6040518082815260200191505060405180910390f35b6000600360008373ffffffffffffffffffffffffffffffffffffffff1673ffffffffffffffffffffffffffffffffffffffff168152602001908152602001600020549050919050565b60008060009054906101000a900473ffffffffffffffffffffffffffffffffffffffff1673ffffffffffffffffffffffffffffffffffffffff163373ffffffffffffffffffffffffffffffffffffffff1614156104175781600560008573ffffffffffffffffffffffffffffffffffffffff1673ffffffffffffffffffffffffffffffffffffffff16815260200190815260200160002090805190602001906103fc92919061071f565b5060016002600082825401925050819055506001905061041c565b600090505b92915050565b60006001600460008573ffffffffffffffffffffffffffffffffffffffff1673ffffffffffffffffffffffffffffffffffffffff16815260200190815260200160002060003373ffffffffffffffffffffffffffffffffffffffff1673ffffffffffffffffffffffffffffffffffffffff1681526020019081526020016000206000016000828254019250508190555081600460008573ffffffffffffffffffffffffffffffffffffffff1673ffffffffffffffffffffffffffffffffffffffff16815260200190815260200160002060003373ffffffffffffffffffffffffffffffffffffffff1673ffffffffffffffffffffffffffffffffffffffff168152602001908152602001600020600101600084815260200190815260200160002081905550600460008473ffffffffffffffffffffffffffffffffffffffff1673ffffffffffffffffffffffffffffffffffffffff16815260200190815260200160002060003373ffffffffffffffffffffffffffffffffffffffff1673ffffffffffffffffffffffffffffffffffffffff1681526020019081526020016000206002018290806001815401808255809150509060018203906000526020600020016000909192909190915055506001600360008573ffffffffffffffffffffffffffffffffffffffff1673ffffffffffffffffffffffffffffffffffffffff16815260200190815260200160002060008282540192505081905550600180600082825401925050819055506001905092915050565b60008060009054906101000a900473ffffffffffffffffffffffffffffffffffffffff16905090565b6000600154905090565b6000600460008473ffffffffffffffffffffffffffffffffffffffff1673ffffffffffffffffffffffffffffffffffffffff16815260200190815260200160002060008373ffffffffffffffffffffffffffffffffffffffff1673ffffffffffffffffffffffffffffffffffffffff16815260200190815260200160002060000154905092915050565b6000600254905090565b828054600181600116156101000203166002900490600052602060002090601f016020900481019282601f1061076057805160ff191683800117855561078e565b8280016001018555821561078e579182015b8281111561078d578251825591602001919060010190610772565b5b50905061079b919061079f565b5090565b6107c191905b808211156107bd5760008160009055506001016107a5565b5090565b905600a165627a7a72305820e02e2550e070aa7569ef14ba2604904789703976f6d8e7448921f900a513021f0029",
  "source": "pragma solidity ^0.4.24;\n\ncontract BlockXHealth {\n    struct PatientVisit {\n        uint totalVisits;\n        mapping (uint => uint) records;\n        uint[] patientRecords;\n    }\n    address private _owner;\n    uint private _totalHospitalVisits;\n    uint private _totalHospitals;\n    mapping (address => uint) private _totalVisitForHospital;\n    mapping (address => mapping (address => PatientVisit)) private _patientVisits;\n    mapping(address => string) private _hospitals;\n    \n    constructor() public {\n        _owner = msg.sender;   \n    }\n    \n    function getOwner() public view returns (address) {\n        return _owner;\n    }\n\n    function getTotalHospitals() public view returns (uint) {\n        return _totalHospitals;\n    }\n    \n    function getTotalHospitalVisits() public view returns (uint) {\n        return _totalHospitalVisits;\n    }\n    \n    function getVisitsForHospital(address _hospitalAddress) public view returns (uint) {\n        return _totalVisitForHospital[_hospitalAddress];\n    }\n    \n    function getPatientVisitCount(address _hospitalAddress, address _patientAddress) public view returns (uint) {\n        return _patientVisits[_hospitalAddress][_patientAddress].totalVisits;\n    }\n    \n    function addHospital(address _hospitalAddress, string _hospitalName) public returns (bool) {\n        if (msg.sender == _owner) {\n            _hospitals[_hospitalAddress] = _hospitalName;\n            _totalHospitals += 1;\n            return true;\n        }\n        else {\n            return false;\n        }\n    }\n    \n    function addPatientVisit(address _hospitalAddress, uint _timeOfVisit) public returns (bool) {\n        _patientVisits[_hospitalAddress][msg.sender].totalVisits += 1;\n        _patientVisits[_hospitalAddress][msg.sender].records[_timeOfVisit] = _timeOfVisit;\n        _patientVisits[_hospitalAddress][msg.sender].patientRecords.push(_timeOfVisit);\n        _totalVisitForHospital[_hospitalAddress] += 1;\n        _totalHospitalVisits += 1;\n        return true;\n    }\n}\n",
  "sourcePath": "/Users/andelastc/Projects/blockx/contracts/BlockXHealth.sol",
  "compiler": {
    "name": "solc",
    "version": "0.4.24+commit.e67f0147.Emscripten.clang"
  },
  "schemaVersion": "2.0.1",
  "updatedAt": "2018-12-01T15:38:54.596Z"
}